{
  "_format": "hh3-artifact-1",
  "contractName": "StateElectionVoting",
  "sourceName": "smart-contracts/Voting.sol",
  "abi": [
    {
      "inputs": [],
      "stateMutability": "nonpayable",
      "type": "constructor"
    },
    {
      "anonymous": false,
      "inputs": [
        {
          "indexed": true,
          "internalType": "uint256",
          "name": "electionId",
          "type": "uint256"
        },
        {
          "indexed": true,
          "internalType": "uint256",
          "name": "candidateId",
          "type": "uint256"
        },
        {
          "indexed": false,
          "internalType": "string",
          "name": "candidateName",
          "type": "string"
        },
        {
          "indexed": false,
          "internalType": "uint256",
          "name": "constituencyId",
          "type": "uint256"
        }
      ],
      "name": "CandidateAdded",
      "type": "event"
    },
    {
      "anonymous": false,
      "inputs": [
        {
          "indexed": true,
          "internalType": "uint256",
          "name": "constituencyId",
          "type": "uint256"
        },
        {
          "indexed": false,
          "internalType": "string",
          "name": "name",
          "type": "string"
        },
        {
          "indexed": false,
          "internalType": "string",
          "name": "stateName",
          "type": "string"
        }
      ],
      "name": "ConstituencyCreated",
      "type": "event"
    },
    {
      "anonymous": false,
      "inputs": [
        {
          "indexed": true,
          "internalType": "uint256",
          "name": "electionId",
          "type": "uint256"
        },
        {
          "indexed": false,
          "internalType": "string",
          "name": "title",
          "type": "string"
        },
        {
          "indexed": false,
          "internalType": "string",
          "name": "stateName",
          "type": "string"
        }
      ],
      "name": "ElectionCreated",
      "type": "event"
    },
    {
      "anonymous": false,
      "inputs": [
        {
          "indexed": true,
          "internalType": "uint256",
          "name": "electionId",
          "type": "uint256"
        }
      ],
      "name": "ElectionEnded",
      "type": "event"
    },
    {
      "anonymous": false,
      "inputs": [
        {
          "indexed": true,
          "internalType": "uint256",
          "name": "electionId",
          "type": "uint256"
        }
      ],
      "name": "ElectionStarted",
      "type": "event"
    },
    {
      "anonymous": false,
      "inputs": [
        {
          "indexed": true,
          "internalType": "uint256",
          "name": "electionId",
          "type": "uint256"
        }
      ],
      "name": "ResultsPublished",
      "type": "event"
    },
    {
      "anonymous": false,
      "inputs": [
        {
          "indexed": true,
          "internalType": "address",
          "name": "voter",
          "type": "address"
        },
        {
          "indexed": true,
          "internalType": "uint256",
          "name": "electionId",
          "type": "uint256"
        },
        {
          "indexed": true,
          "internalType": "uint256",
          "name": "candidateId",
          "type": "uint256"
        }
      ],
      "name": "VoteCast",
      "type": "event"
    },
    {
      "anonymous": false,
      "inputs": [
        {
          "indexed": true,
          "internalType": "uint256",
          "name": "electionId",
          "type": "uint256"
        },
        {
          "indexed": true,
          "internalType": "address",
          "name": "voter",
          "type": "address"
        },
        {
          "indexed": false,
          "internalType": "uint256",
          "name": "constituencyId",
          "type": "uint256"
        }
      ],
      "name": "VoterRegistered",
      "type": "event"
    },
    {
      "inputs": [
        {
          "internalType": "uint256",
          "name": "electionId",
          "type": "uint256"
        },
        {
          "internalType": "string",
          "name": "name",
          "type": "string"
        },
        {
          "internalType": "string",
          "name": "party",
          "type": "string"
        },
        {
          "internalType": "uint256",
          "name": "constituencyId",
          "type": "uint256"
        }
      ],
      "name": "addCandidate",
      "outputs": [],
      "stateMutability": "nonpayable",
      "type": "function"
    },
    {
      "inputs": [],
      "name": "admin",
      "outputs": [
        {
          "internalType": "address",
          "name": "",
          "type": "address"
        }
      ],
      "stateMutability": "view",
      "type": "function"
    },
    {
      "inputs": [],
      "name": "candidateCounter",
      "outputs": [
        {
          "internalType": "uint256",
          "name": "",
          "type": "uint256"
        }
      ],
      "stateMutability": "view",
      "type": "function"
    },
    {
      "inputs": [
        {
          "internalType": "uint256",
          "name": "",
          "type": "uint256"
        }
      ],
      "name": "constituencies",
      "outputs": [
        {
          "internalType": "uint256",
          "name": "id",
          "type": "uint256"
        },
        {
          "internalType": "string",
          "name": "name",
          "type": "string"
        },
        {
          "internalType": "string",
          "name": "stateName",
          "type": "string"
        },
        {
          "internalType": "bool",
          "name": "exists",
          "type": "bool"
        }
      ],
      "stateMutability": "view",
      "type": "function"
    },
    {
      "inputs": [],
      "name": "constituencyCounter",
      "outputs": [
        {
          "internalType": "uint256",
          "name": "",
          "type": "uint256"
        }
      ],
      "stateMutability": "view",
      "type": "function"
    },
    {
      "inputs": [
        {
          "internalType": "string",
          "name": "name",
          "type": "string"
        },
        {
          "internalType": "string",
          "name": "stateName",
          "type": "string"
        }
      ],
      "name": "createConstituency",
      "outputs": [],
      "stateMutability": "nonpayable",
      "type": "function"
    },
    {
      "inputs": [
        {
          "internalType": "string",
          "name": "title",
          "type": "string"
        },
        {
          "internalType": "string",
          "name": "stateName",
          "type": "string"
        },
        {
          "internalType": "uint256",
          "name": "startTime",
          "type": "uint256"
        },
        {
          "internalType": "uint256",
          "name": "endTime",
          "type": "uint256"
        }
      ],
      "name": "createElection",
      "outputs": [],
      "stateMutability": "nonpayable",
      "type": "function"
    },
    {
      "inputs": [],
      "name": "electionCounter",
      "outputs": [
        {
          "internalType": "uint256",
          "name": "",
          "type": "uint256"
        }
      ],
      "stateMutability": "view",
      "type": "function"
    },
    {
      "inputs": [
        {
          "internalType": "uint256",
          "name": "",
          "type": "uint256"
        },
        {
          "internalType": "address",
          "name": "",
          "type": "address"
        }
      ],
      "name": "electionVoters",
      "outputs": [
        {
          "internalType": "bool",
          "name": "isRegistered",
          "type": "bool"
        },
        {
          "internalType": "uint256",
          "name": "constituencyId",
          "type": "uint256"
        },
        {
          "internalType": "bool",
          "name": "hasVoted",
          "type": "bool"
        }
      ],
      "stateMutability": "view",
      "type": "function"
    },
    {
      "inputs": [
        {
          "internalType": "uint256",
          "name": "",
          "type": "uint256"
        }
      ],
      "name": "elections",
      "outputs": [
        {
          "internalType": "uint256",
          "name": "id",
          "type": "uint256"
        },
        {
          "internalType": "string",
          "name": "title",
          "type": "string"
        },
        {
          "internalType": "string",
          "name": "stateName",
          "type": "string"
        },
        {
          "internalType": "uint256",
          "name": "startTime",
          "type": "uint256"
        },
        {
          "internalType": "uint256",
          "name": "endTime",
          "type": "uint256"
        },
        {
          "internalType": "bool",
          "name": "isActive",
          "type": "bool"
        },
        {
          "internalType": "bool",
          "name": "resultsPublished",
          "type": "bool"
        },
        {
          "internalType": "bool",
          "name": "exists",
          "type": "bool"
        }
      ],
      "stateMutability": "view",
      "type": "function"
    },
    {
      "inputs": [
        {
          "internalType": "uint256",
          "name": "electionId",
          "type": "uint256"
        }
      ],
      "name": "endElection",
      "outputs": [],
      "stateMutability": "nonpayable",
      "type": "function"
    },
    {
      "inputs": [
        {
          "internalType": "uint256",
          "name": "electionId",
          "type": "uint256"
        }
      ],
      "name": "getCandidates",
      "outputs": [
        {
          "components": [
            {
              "internalType": "uint256",
              "name": "id",
              "type": "uint256"
            },
            {
              "internalType": "string",
              "name": "name",
              "type": "string"
            },
            {
              "internalType": "string",
              "name": "party",
              "type": "string"
            },
            {
              "internalType": "uint256",
              "name": "constituencyId",
              "type": "uint256"
            },
            {
              "internalType": "uint256",
              "name": "voteCount",
              "type": "uint256"
            },
            {
              "internalType": "bool",
              "name": "isActive",
              "type": "bool"
            }
          ],
          "internalType": "struct StateElectionVoting.Candidate[]",
          "name": "",
          "type": "tuple[]"
        }
      ],
      "stateMutability": "view",
      "type": "function"
    },
    {
      "inputs": [
        {
          "internalType": "uint256",
          "name": "electionId",
          "type": "uint256"
        },
        {
          "internalType": "address",
          "name": "voter",
          "type": "address"
        }
      ],
      "name": "getRegisteredVoterDetails",
      "outputs": [
        {
          "internalType": "bool",
          "name": "isRegistered",
          "type": "bool"
        },
        {
          "internalType": "uint256",
          "name": "constituencyId",
          "type": "uint256"
        },
        {
          "internalType": "bool",
          "name": "hasVoted",
          "type": "bool"
        }
      ],
      "stateMutability": "view",
      "type": "function"
    },
    {
      "inputs": [
        {
          "internalType": "uint256",
          "name": "electionId",
          "type": "uint256"
        }
      ],
      "name": "getResults",
      "outputs": [
        {
          "components": [
            {
              "internalType": "uint256",
              "name": "id",
              "type": "uint256"
            },
            {
              "internalType": "string",
              "name": "name",
              "type": "string"
            },
            {
              "internalType": "string",
              "name": "party",
              "type": "string"
            },
            {
              "internalType": "uint256",
              "name": "constituencyId",
              "type": "uint256"
            },
            {
              "internalType": "uint256",
              "name": "voteCount",
              "type": "uint256"
            },
            {
              "internalType": "bool",
              "name": "isActive",
              "type": "bool"
            }
          ],
          "internalType": "struct StateElectionVoting.Candidate[]",
          "name": "",
          "type": "tuple[]"
        }
      ],
      "stateMutability": "view",
      "type": "function"
    },
    {
      "inputs": [
        {
          "internalType": "uint256",
          "name": "electionId",
          "type": "uint256"
        }
      ],
      "name": "publishResults",
      "outputs": [],
      "stateMutability": "nonpayable",
      "type": "function"
    },
    {
      "inputs": [
        {
          "internalType": "uint256",
          "name": "electionId",
          "type": "uint256"
        },
        {
          "internalType": "address",
          "name": "voter",
          "type": "address"
        },
        {
          "internalType": "uint256",
          "name": "constituencyId",
          "type": "uint256"
        }
      ],
      "name": "registerVoter",
      "outputs": [],
      "stateMutability": "nonpayable",
      "type": "function"
    },
    {
      "inputs": [
        {
          "internalType": "uint256",
          "name": "electionId",
          "type": "uint256"
        },
        {
          "internalType": "uint256",
          "name": "candidateId",
          "type": "uint256"
        },
        {
          "internalType": "bool",
          "name": "isActive",
          "type": "bool"
        }
      ],
      "name": "setCandidateStatus",
      "outputs": [],
      "stateMutability": "nonpayable",
      "type": "function"
    },
    {
      "inputs": [
        {
          "internalType": "uint256",
          "name": "electionId",
          "type": "uint256"
        }
      ],
      "name": "startElection",
      "outputs": [],
      "stateMutability": "nonpayable",
      "type": "function"
    },
    {
      "inputs": [
        {
          "internalType": "uint256",
          "name": "electionId",
          "type": "uint256"
        },
        {
          "internalType": "uint256",
          "name": "candidateId",
          "type": "uint256"
        }
      ],
      "name": "vote",
      "outputs": [],
      "stateMutability": "nonpayable",
      "type": "function"
    }
  ],
  "bytecode": "0x608060405234801561001057600080fd5b50600080546001600160a01b031916331790556125c0806100326000396000f3fe608060405234801561001057600080fd5b50600436106101215760003560e01c80638fab47df116100ad578063db7d2ece11610071578063db7d2ece14610258578063dc14d30d1461026b578063e3d831621461027e578063f5728fbe146102b0578063f851a440146102ef57600080fd5b80638fab47df146101e95780639209416a146101fc5780639c98bcbb1461021f578063b384abef14610232578063bfad9cc01461024557600080fd5b80635e6fef01116100f45780635e6fef011461018057806361e37417146101a75780636d32dc4b146101b05780637ad36e84146101c357806381a60c0d146101d657600080fd5b80630f67fe3f146101265780633bc990db146101425780633e39a7a51461014b5780635d742c8c1461016b575b600080fd5b61012f60025481565b6040519081526020015b60405180910390f35b61012f60035481565b61015e610159366004611ee1565b61031a565b6040516101399190611f40565b61017e61017936600461200d565b61051e565b005b61019361018e366004611ee1565b610895565b604051610139989796959493929190612042565b61012f60015481565b61017e6101be366004611ee1565b6109f1565b61017e6101d1366004612143565b610c3d565b61015e6101e4366004611ee1565b610eb2565b61017e6101f73660046121b7565b6110fe565b61020f61020a366004611ee1565b611400565b604051610139949392919061222c565b61017e61022d366004611ee1565b61153c565b61017e61024036600461226b565b611636565b61017e610253366004611ee1565b6119cc565b61017e61026636600461228d565b611b77565b61017e6102793660046122cb565b611cba565b61029161028c36600461232f565b611e4a565b6040805193151584526020840192909252151590820152606001610139565b6102916102be36600461232f565b600760209081526000928352604080842090915290825290208054600182015460029092015460ff91821692911683565b600054610302906001600160a01b031681565b6040516001600160a01b039091168152602001610139565b600081815260046020526040902060050154606090829062010000900460ff1661035f5760405162461bcd60e51b81526004016103569061235b565b60405180910390fd5b600083815260066020908152604080832080548251818502810185019093528083529193909284015b8282101561051157838290600052602060002090600602016040518060c0016040529081600082015481526020016001820180546103c590612392565b80601f01602080910402602001604051908101604052809291908181526020018280546103f190612392565b801561043e5780601f106104135761010080835404028352916020019161043e565b820191906000526020600020905b81548152906001019060200180831161042157829003601f168201915b5050505050815260200160028201805461045790612392565b80601f016020809104026020016040519081016040528092919081815260200182805461048390612392565b80156104d05780601f106104a5576101008083540402835291602001916104d0565b820191906000526020600020905b8154815290600101906020018083116104b357829003601f168201915b505050918352505060038201546020808301919091526004830154604083015260059092015460ff1615156060909101529082526001929092019101610388565b5050505091505b50919050565b6000546001600160a01b031633146105485760405162461bcd60e51b8152600401610356906123c6565b600083815260046020526040902060050154839062010000900460ff166105815760405162461bcd60e51b81526004016103569061235b565b600082815260056020526040902060030154829060ff166105e45760405162461bcd60e51b815260206004820152601b60248201527f436f6e7374697475656e637920646f6573206e6f7420657869737400000000006044820152606401610356565b6001600160a01b0384166106325760405162461bcd60e51b8152602060048201526015602482015274496e76616c696420766f746572206164647265737360581b6044820152606401610356565b60008581526004602090815260408083208684526005909252909120600282018054610783919061066290612392565b80601f016020809104026020016040519081016040528092919081815260200182805461068e90612392565b80156106db5780601f106106b0576101008083540402835291602001916106db565b820191906000526020600020905b8154815290600101906020018083116106be57829003601f168201915b50505050508260020180546106ef90612392565b80601f016020809104026020016040519081016040528092919081815260200182805461071b90612392565b80156107685780601f1061073d57610100808354040283529160200191610768565b820191906000526020600020905b81548152906001019060200180831161074b57829003601f168201915b50505050508051602091820120825192909101919091201490565b6107e65760405162461bcd60e51b815260206004820152602e60248201527f436f6e7374697475656e637920646f6573206e6f742062656c6f6e6720746f2060448201526d656c656374696f6e20737461746560901b6064820152608401610356565b604080516060810182526001808252602080830189815260008486018181528d8252600784528682206001600160a01b038e168084529452908690209451855490151560ff1991821617865591519385019390935591516002909301805493151593909216929092179055905188907f01e11862df0e62dbe43c28777660b0156ed282de8162905db35e96081ddca92e906108849089815260200190565b60405180910390a350505050505050565b600460205260009081526040902080546001820180549192916108b790612392565b80601f01602080910402602001604051908101604052809291908181526020018280546108e390612392565b80156109305780601f1061090557610100808354040283529160200191610930565b820191906000526020600020905b81548152906001019060200180831161091357829003601f168201915b50505050509080600201805461094590612392565b80601f016020809104026020016040519081016040528092919081815260200182805461097190612392565b80156109be5780601f10610993576101008083540402835291602001916109be565b820191906000526020600020905b8154815290600101906020018083116109a157829003601f168201915b505050600384015460048501546005909501549394909390925060ff808216925061010082048116916201000090041688565b6000546001600160a01b03163314610a1b5760405162461bcd60e51b8152600401610356906123c6565b600081815260046020526040902060050154819062010000900460ff16610a545760405162461bcd60e51b81526004016103569061235b565b6000828152600460205260409020600581015460ff1615610ab75760405162461bcd60e51b815260206004820152601760248201527f456c656374696f6e20616c7265616479206163746976650000000000000000006044820152606401610356565b6005810154610100900460ff1615610b0d5760405162461bcd60e51b815260206004820152601960248201527814995cdd5b1d1cc8185b1c9958591e481c1d589b1a5cda1959603a1b6044820152606401610356565b8060030154421015610b615760405162461bcd60e51b815260206004820152601860248201527f456c656374696f6e206e6f7420737461727465642079657400000000000000006044820152606401610356565b80600401544210610bad5760405162461bcd60e51b8152602060048201526016602482015275115b1958dd1a5bdb88185b1c9958591e48195b99195960521b6044820152606401610356565b600083815260066020526040902054610bfe5760405162461bcd60e51b8152602060048201526013602482015272139bc818d85b991a59185d195cc81859191959606a1b6044820152606401610356565b60058101805460ff1916600117905560405183907f159eee87222a0489c529f2153c26ad65d718f2cc33ebaa8d399d1dd5b39facaa90600090a2505050565b6000546001600160a01b03163314610c675760405162461bcd60e51b8152600401610356906123c6565b6000845111610ca95760405162461bcd60e51b815260206004820152600e60248201526d151a5d1b19481c995c5d5a5c995960921b6044820152606401610356565b6000835111610ceb5760405162461bcd60e51b815260206004820152600e60248201526d14dd185d19481c995c5d5a5c995960921b6044820152606401610356565b808210610d2f5760405162461bcd60e51b8152602060048201526012602482015271496e76616c69642074696d652072616e676560701b6044820152606401610356565b428111610d7e5760405162461bcd60e51b815260206004820152601e60248201527f456e642074696d65206d75737420626520696e207468652066757475726500006044820152606401610356565b60018054906000610d8e836123f2565b909155505060408051610100810182526001805480835260208084018981528486018990526060850188905260808501879052600060a0860181905260c0860181905260e08601859052928352600490915293902082518155925191929190820190610dfa9082612464565b5060408201516002820190610e0f9082612464565b50606082015160038201556080820151600482015560a08201516005909101805460c084015160e0909401511515620100000262ff0000199415156101000261ff00199415159490941661ffff199092169190911792909217929092161790556001546040517feaf9c9dabc2a68b717e3095068d04a84ecace13a1ab18b4499a913c3ab3d286990610ea49087908790612524565b60405180910390a250505050565b600081815260046020526040902060050154606090829062010000900460ff16610eee5760405162461bcd60e51b81526004016103569061235b565b600083815260046020526040902060050154610100900460ff16610f4c5760405162461bcd60e51b815260206004820152601560248201527414995cdd5b1d1cc81b9bdd081c1d589b1a5cda1959605a1b6044820152606401610356565b600083815260066020908152604080832080548251818502810185019093528083529193909284015b8282101561051157838290600052602060002090600602016040518060c001604052908160008201548152602001600182018054610fb290612392565b80601f0160208091040260200160405190810160405280929190818152602001828054610fde90612392565b801561102b5780601f106110005761010080835404028352916020019161102b565b820191906000526020600020905b81548152906001019060200180831161100e57829003601f168201915b5050505050815260200160028201805461104490612392565b80601f016020809104026020016040519081016040528092919081815260200182805461107090612392565b80156110bd5780601f10611092576101008083540402835291602001916110bd565b820191906000526020600020905b8154815290600101906020018083116110a057829003601f168201915b505050918352505060038201546020808301919091526004830154604083015260059092015460ff1615156060909101529082526001929092019101610f75565b6000546001600160a01b031633146111285760405162461bcd60e51b8152600401610356906123c6565b600084815260046020526040902060050154849062010000900460ff166111615760405162461bcd60e51b81526004016103569061235b565b600082815260056020526040902060030154829060ff166111c45760405162461bcd60e51b815260206004820152601b60248201527f436f6e7374697475656e637920646f6573206e6f7420657869737400000000006044820152606401610356565b60008551116112155760405162461bcd60e51b815260206004820152601760248201527f43616e646964617465206e616d652072657175697265640000000000000000006044820152606401610356565b600084511161125c5760405162461bcd60e51b815260206004820152601360248201527214185c9d1e481b985b59481c995c5d5a5c9959606a1b6044820152606401610356565b6000868152600460209081526040808320868452600590925290912060028201805461128c919061066290612392565b6112ee5760405162461bcd60e51b815260206004820152602d60248201527f43616e64696461746520636f6e7374697475656e6379206f757473696465206560448201526c6c656374696f6e20737461746560981b6064820152608401610356565b600380549060006112fe836123f2565b90915550506000888152600660208181526040808420815160c08101835260035481528084018d81529281018c9052606081018b905260808101869052600160a082018190528254808201845592875293909520855191909402909301928355519082019061136d9082612464565b50604082015160028201906113829082612464565b50606082015181600301556080820151816004015560a08201518160050160006101000a81548160ff0219169083151502179055505050600354887f325c073d554a663daf53fcbf0e29e919f95768027dc4bb47e7864525ec156dc289886040516113ee929190612552565b60405180910390a35050505050505050565b6005602052600090815260409020805460018201805491929161142290612392565b80601f016020809104026020016040519081016040528092919081815260200182805461144e90612392565b801561149b5780601f106114705761010080835404028352916020019161149b565b820191906000526020600020905b81548152906001019060200180831161147e57829003601f168201915b5050505050908060020180546114b090612392565b80601f01602080910402602001604051908101604052809291908181526020018280546114dc90612392565b80156115295780601f106114fe57610100808354040283529160200191611529565b820191906000526020600020905b81548152906001019060200180831161150c57829003601f168201915b5050506003909301549192505060ff1684565b6000546001600160a01b031633146115665760405162461bcd60e51b8152600401610356906123c6565b600081815260046020526040902060050154819062010000900460ff1661159f5760405162461bcd60e51b81526004016103569061235b565b6000828152600460205260409020600581015460ff166115fa5760405162461bcd60e51b8152602060048201526016602482015275456c656374696f6e206973206e6f742061637469766560501b6044820152606401610356565b60058101805460ff1916905560405183907f562cd572b2ba3b666cd989fc4ca98419ec81e75f04528df9d9d76fdb7807ee7190600090a2505050565b600082815260046020526040902060050154829062010000900460ff1661166f5760405162461bcd60e51b81526004016103569061235b565b6000838152600460205260409020600581015460ff166116c75760405162461bcd60e51b8152602060048201526013602482015272456c656374696f6e206e6f742061637469766560681b6044820152606401610356565b806003015442101580156116df575080600401544211155b61171b5760405162461bcd60e51b815260206004820152600d60248201526c159bdd1a5b99c818db1bdcd959609a1b6044820152606401610356565b60008481526007602090815260408083203384529091529020805460ff1661177c5760405162461bcd60e51b8152602060048201526014602482015273159bdd195c881b9bdd081c9959da5cdd195c995960621b6044820152606401610356565b600281015460ff16156117c15760405162461bcd60e51b815260206004820152600d60248201526c105b1c9958591e481d9bdd1959609a1b6044820152606401610356565b600085815260066020526040812090805b825481101561194357868382815481106117ee576117ee612574565b906000526020600020906006020160000154036119315782818154811061181757611817612574565b600091825260209091206005600690920201015460ff1661186f5760405162461bcd60e51b815260206004820152601260248201527143616e64696461746520696e61637469766560701b6044820152606401610356565b836001015483828154811061188657611886612574565b906000526020600020906006020160030154146118f35760405162461bcd60e51b815260206004820152602560248201527f43616e646964617465206e6f7420696e20766f746572277320636f6e7374697460448201526475656e637960d81b6064820152608401610356565b82818154811061190557611905612574565b600091825260208220600460069092020101805491611923836123f2565b919050555060019150611943565b8061193b816123f2565b9150506117d2565b50806119855760405162461bcd60e51b8152602060048201526011602482015270496e76616c69642063616e64696461746560781b6044820152606401610356565b60028301805460ff191660011790556040518690889033907fb4cfecf70861b7b150d8337780d34fb4cbc2114b5fb1fe51a5c5fca1849f727490600090a450505050505050565b6000546001600160a01b031633146119f65760405162461bcd60e51b8152600401610356906123c6565b600081815260046020526040902060050154819062010000900460ff16611a2f5760405162461bcd60e51b81526004016103569061235b565b6000828152600460208190526040909120908101544211611a8b5760405162461bcd60e51b8152602060048201526016602482015275456c656374696f6e207374696c6c2072756e6e696e6760501b6044820152606401610356565b600581015460ff1615611ae05760405162461bcd60e51b815260206004820152601e60248201527f456e6420656c656374696f6e206265666f7265207075626c697368696e6700006044820152606401610356565b6005810154610100900460ff1615611b365760405162461bcd60e51b815260206004820152601960248201527814995cdd5b1d1cc8185b1c9958591e481c1d589b1a5cda1959603a1b6044820152606401610356565b60058101805461ff00191661010017905560405183907fee088bcc4c9bbd048c9c087916ec26aae94e63151610af8167078ef170e5ae6090600090a2505050565b6000546001600160a01b03163314611ba15760405162461bcd60e51b8152600401610356906123c6565b600083815260046020526040902060050154839062010000900460ff16611bda5760405162461bcd60e51b81526004016103569061235b565b600084815260066020526040812090805b8254811015611c6e5785838281548110611c0757611c07612574565b90600052602060002090600602016000015403611c5c5784838281548110611c3157611c31612574565b60009182526020909120600690910201600501805460ff191691151591909117905560019150611c6e565b80611c66816123f2565b915050611beb565b5080611cb25760405162461bcd60e51b815260206004820152601360248201527210d85b991a59185d19481b9bdd08199bdd5b99606a1b6044820152606401610356565b505050505050565b6000546001600160a01b03163314611ce45760405162461bcd60e51b8152600401610356906123c6565b6000825111611d355760405162461bcd60e51b815260206004820152601a60248201527f436f6e7374697475656e6379206e616d652072657175697265640000000000006044820152606401610356565b6000815111611d775760405162461bcd60e51b815260206004820152600e60248201526d14dd185d19481c995c5d5a5c995960921b6044820152606401610356565b60028054906000611d87836123f2565b9091555050604080516080810182526002548082526020808301868152838501869052600160608501819052600093845260059092529390912082518155925191929190820190611dd89082612464565b5060408201516002820190611ded9082612464565b50606091909101516003909101805460ff19169115159190911790556002546040517f316388351bccc6e7f10a236cdaaea5fe0ccdced1c5deef9ef9bf7c881e7fb63390611e3e9085908590612524565b60405180910390a25050565b60008281526004602052604081206005015481908190859062010000900460ff16611e875760405162461bcd60e51b81526004016103569061235b565b5050506000928352506007602090815260408084206001600160a01b03939093168452918152918190208151606081018352815460ff90811615158083526001840154958301869052600290930154161515920182905292565b600060208284031215611ef357600080fd5b5035919050565b6000815180845260005b81811015611f2057602081850181015186830182015201611f04565b506000602082860101526020601f19601f83011685010191505092915050565b60006020808301818452808551808352604092508286019150828160051b87010184880160005b83811015611fe357603f19898403018552815160c08151855288820151818a870152611f9582870182611efa565b9150508782015185820389870152611fad8282611efa565b606084810151908801526080808501519088015260a0938401511515939096019290925250509386019390860190600101611f67565b509098975050505050505050565b80356001600160a01b038116811461200857600080fd5b919050565b60008060006060848603121561202257600080fd5b8335925061203260208501611ff1565b9150604084013590509250925092565b60006101008a835280602084015261205c8184018b611efa565b90508281036040840152612070818a611efa565b60608401989098525050608081019490945291151560a0840152151560c0830152151560e0909101529392505050565b634e487b7160e01b600052604160045260246000fd5b600082601f8301126120c757600080fd5b813567ffffffffffffffff808211156120e2576120e26120a0565b604051601f8301601f19908116603f0116810190828211818310171561210a5761210a6120a0565b8160405283815286602085880101111561212357600080fd5b836020870160208301376000602085830101528094505050505092915050565b6000806000806080858703121561215957600080fd5b843567ffffffffffffffff8082111561217157600080fd5b61217d888389016120b6565b9550602087013591508082111561219357600080fd5b506121a0878288016120b6565b949794965050505060408301359260600135919050565b600080600080608085870312156121cd57600080fd5b84359350602085013567ffffffffffffffff808211156121ec57600080fd5b6121f8888389016120b6565b9450604087013591508082111561220e57600080fd5b5061221b878288016120b6565b949793965093946060013593505050565b8481526080602082015260006122456080830186611efa565b82810360408401526122578186611efa565b915050821515606083015295945050505050565b6000806040838503121561227e57600080fd5b50508035926020909101359150565b6000806000606084860312156122a257600080fd5b8335925060208401359150604084013580151581146122c057600080fd5b809150509250925092565b600080604083850312156122de57600080fd5b823567ffffffffffffffff808211156122f657600080fd5b612302868387016120b6565b9350602085013591508082111561231857600080fd5b50612325858286016120b6565b9150509250929050565b6000806040838503121561234257600080fd5b8235915061235260208401611ff1565b90509250929050565b60208082526017908201527f456c656374696f6e20646f6573206e6f74206578697374000000000000000000604082015260600190565b600181811c908216806123a657607f821691505b60208210810361051857634e487b7160e01b600052602260045260246000fd5b60208082526012908201527113db9b1e4818591b5a5b88185b1b1bddd95960721b604082015260600190565b60006001820161241257634e487b7160e01b600052601160045260246000fd5b5060010190565b601f82111561245f57600081815260208120601f850160051c810160208610156124405750805b601f850160051c820191505b81811015611cb25782815560010161244c565b505050565b815167ffffffffffffffff81111561247e5761247e6120a0565b6124928161248c8454612392565b84612419565b602080601f8311600181146124c757600084156124af5750858301515b600019600386901b1c1916600185901b178555611cb2565b600085815260208120601f198616915b828110156124f6578886015182559484019460019091019084016124d7565b50858210156125145787850151600019600388901b60f8161c191681555b5050505050600190811b01905550565b6040815260006125376040830185611efa565b82810360208401526125498185611efa565b95945050505050565b6040815260006125656040830185611efa565b90508260208301529392505050565b634e487b7160e01b600052603260045260246000fdfea26469706673582212200c2a249d1f78cb33a4999afad08135fb0bdf0168b2ea912d7ffd63ecd3d4761f64736f6c63430008130033",
  "linkReferences": {},
  "deployedLinkReferences": {},
  "immutableReferences": {},
  "inputSourceName": "project/smart-contracts/Voting.sol",
  "buildInfoId": "solc-0_8_19-1bdec57c1d45dc0471a69d67fabf1600a75a6edb"
}