{
  "_format": "hh-sol-artifact-1",
  "contractName": "Voting",
  "sourceName": "contracts/Voting.sol",
  "abi": [
    {
      "inputs": [],
      "stateMutability": "nonpayable",
      "type": "constructor"
    },
    {
      "inputs": [
        {
          "internalType": "string",
          "name": "_name",
          "type": "string"
        }
      ],
      "name": "addCandidate",
      "outputs": [],
      "stateMutability": "nonpayable",
      "type": "function"
    },
    {
      "inputs": [],
      "name": "admin",
      "outputs": [
        {
          "internalType": "address",
          "name": "",
          "type": "address"
        }
      ],
      "stateMutability": "view",
      "type": "function"
    },
    {
      "inputs": [],
      "name": "candidateCount",
      "outputs": [
        {
          "internalType": "uint256",
          "name": "",
          "type": "uint256"
        }
      ],
      "stateMutability": "view",
      "type": "function"
    },
    {
      "inputs": [
        {
          "internalType": "uint256",
          "name": "",
          "type": "uint256"
        }
      ],
      "name": "candidates",
      "outputs": [
        {
          "internalType": "uint256",
          "name": "id",
          "type": "uint256"
        },
        {
          "internalType": "string",
          "name": "name",
          "type": "string"
        },
        {
          "internalType": "uint256",
          "name": "voteCount",
          "type": "uint256"
        }
      ],
      "stateMutability": "view",
      "type": "function"
    },
    {
      "inputs": [
        {
          "internalType": "uint256",
          "name": "_id",
          "type": "uint256"
        }
      ],
      "name": "getCandidate",
      "outputs": [
        {
          "internalType": "uint256",
          "name": "",
          "type": "uint256"
        },
        {
          "internalType": "string",
          "name": "",
          "type": "string"
        },
        {
          "internalType": "uint256",
          "name": "",
          "type": "uint256"
        }
      ],
      "stateMutability": "view",
      "type": "function"
    },
    {
      "inputs": [
        {
          "internalType": "uint256",
          "name": "_candidateId",
          "type": "uint256"
        }
      ],
      "name": "vote",
      "outputs": [],
      "stateMutability": "nonpayable",
      "type": "function"
    },
    {
      "inputs": [
        {
          "internalType": "address",
          "name": "",
          "type": "address"
        }
      ],
      "name": "voters",
      "outputs": [
        {
          "internalType": "bool",
          "name": "hasVoted",
          "type": "bool"
        },
        {
          "internalType": "uint256",
          "name": "votedCandidateId",
          "type": "uint256"
        }
      ],
      "stateMutability": "view",
      "type": "function"
    }
  ],
  "bytecode": "0x608060405234801561001057600080fd5b50336000806101000a81548173ffffffffffffffffffffffffffffffffffffffff021916908373ffffffffffffffffffffffffffffffffffffffff160217905550610ef2806100606000396000f3fe608060405234801561001057600080fd5b506004361061007d5760003560e01c8063462e91ec1161005b578063462e91ec14610102578063a3ec138d1461011e578063a9a981a31461014f578063f851a4401461016d5761007d565b80630121b93f146100825780633477ee2e1461009e57806335b8e820146100d0575b600080fd5b61009c60048036038101906100979190610687565b61018b565b005b6100b860048036038101906100b39190610687565b61033d565b6040516100c793929190610753565b60405180910390f35b6100ea60048036038101906100e59190610687565b6103ef565b6040516100f993929190610753565b60405180910390f35b61011c600480360381019061011791906108c6565b6104d9565b005b6101386004803603810190610133919061096d565b6105e2565b6040516101469291906109b5565b60405180910390f35b610157610613565b60405161016491906109de565b60405180910390f35b610175610619565b6040516101829190610a08565b60405180910390f35b600360003373ffffffffffffffffffffffffffffffffffffffff1673ffffffffffffffffffffffffffffffffffffffff16815260200190815260200160002060000160009054906101000a900460ff161561021b576040517f08c379a000000000000000000000000000000000000000000000000000000000815260040161021290610a6f565b60405180910390fd5b60008111801561022d57506001548111155b61026c576040517f08c379a000000000000000000000000000000000000000000000000000000000815260040161026390610adb565b60405180910390fd5b6001600360003373ffffffffffffffffffffffffffffffffffffffff1673ffffffffffffffffffffffffffffffffffffffff16815260200190815260200160002060000160006101000a81548160ff02191690831515021790555080600360003373ffffffffffffffffffffffffffffffffffffffff1673ffffffffffffffffffffffffffffffffffffffff1681526020019081526020016000206001018190555060026000828152602001908152602001600020600201600081548092919061033590610b2a565b919050555050565b600260205280600052604060002060009150905080600001549080600101805461036690610ba1565b80601f016020809104026020016040519081016040528092919081815260200182805461039290610ba1565b80156103df5780601f106103b4576101008083540402835291602001916103df565b820191906000526020600020905b8154815290600101906020018083116103c257829003601f168201915b5050505050908060020154905083565b60006060600080600260008681526020019081526020016000206040518060600160405290816000820154815260200160018201805461042e90610ba1565b80601f016020809104026020016040519081016040528092919081815260200182805461045a90610ba1565b80156104a75780601f1061047c576101008083540402835291602001916104a7565b820191906000526020600020905b81548152906001019060200180831161048a57829003601f168201915b505050505081526020016002820154815250509050806000015181602001518260400151935093509350509193909250565b60008054906101000a900473ffffffffffffffffffffffffffffffffffffffff1673ffffffffffffffffffffffffffffffffffffffff163373ffffffffffffffffffffffffffffffffffffffff1614610567576040517f08c379a000000000000000000000000000000000000000000000000000000000815260040161055e90610c1e565b60405180910390fd5b6001600081548092919061057a90610b2a565b91905055506040518060600160405280600154815260200182815260200160008152506002600060015481526020019081526020016000206000820151816000015560208201518160010190816105d19190610dea565b506040820151816002015590505050565b60036020528060005260406000206000915090508060000160009054906101000a900460ff16908060010154905082565b60015481565b60008054906101000a900473ffffffffffffffffffffffffffffffffffffffff1681565b6000604051905090565b600080fd5b600080fd5b6000819050919050565b61066481610651565b811461066f57600080fd5b50565b6000813590506106818161065b565b92915050565b60006020828403121561069d5761069c610647565b5b60006106ab84828501610672565b91505092915050565b6106bd81610651565b82525050565b600081519050919050565b600082825260208201905092915050565b60005b838110156106fd5780820151818401526020810190506106e2565b60008484015250505050565b6000601f19601f8301169050919050565b6000610725826106c3565b61072f81856106ce565b935061073f8185602086016106df565b61074881610709565b840191505092915050565b600060608201905061076860008301866106b4565b818103602083015261077a818561071a565b905061078960408301846106b4565b949350505050565b600080fd5b600080fd5b7f4e487b7100000000000000000000000000000000000000000000000000000000600052604160045260246000fd5b6107d382610709565b810181811067ffffffffffffffff821117156107f2576107f161079b565b5b80604052505050565b600061080561063d565b905061081182826107ca565b919050565b600067ffffffffffffffff8211156108315761083061079b565b5b61083a82610709565b9050602081019050919050565b82818337600083830152505050565b600061086961086484610816565b6107fb565b90508281526020810184848401111561088557610884610796565b5b610890848285610847565b509392505050565b600082601f8301126108ad576108ac610791565b5b81356108bd848260208601610856565b91505092915050565b6000602082840312156108dc576108db610647565b5b600082013567ffffffffffffffff8111156108fa576108f961064c565b5b61090684828501610898565b91505092915050565b600073ffffffffffffffffffffffffffffffffffffffff82169050919050565b600061093a8261090f565b9050919050565b61094a8161092f565b811461095557600080fd5b50565b60008135905061096781610941565b92915050565b60006020828403121561098357610982610647565b5b600061099184828501610958565b91505092915050565b60008115159050919050565b6109af8161099a565b82525050565b60006040820190506109ca60008301856109a6565b6109d760208301846106b4565b9392505050565b60006020820190506109f360008301846106b4565b92915050565b610a028161092f565b82525050565b6000602082019050610a1d60008301846109f9565b92915050565b7f416c726561647920766f74656400000000000000000000000000000000000000600082015250565b6000610a59600d836106ce565b9150610a6482610a23565b602082019050919050565b60006020820190508181036000830152610a8881610a4c565b9050919050565b7f496e76616c69642063616e646964617465000000000000000000000000000000600082015250565b6000610ac56011836106ce565b9150610ad082610a8f565b602082019050919050565b60006020820190508181036000830152610af481610ab8565b9050919050565b7f4e487b7100000000000000000000000000000000000000000000000000000000600052601160045260246000fd5b6000610b3582610651565b91507fffffffffffffffffffffffffffffffffffffffffffffffffffffffffffffffff8203610b6757610b66610afb565b5b600182019050919050565b7f4e487b7100000000000000000000000000000000000000000000000000000000600052602260045260246000fd5b60006002820490506001821680610bb957607f821691505b602082108103610bcc57610bcb610b72565b5b50919050565b7f4f6e6c792061646d696e2063616e206164642063616e64696461746573000000600082015250565b6000610c08601d836106ce565b9150610c1382610bd2565b602082019050919050565b60006020820190508181036000830152610c3781610bfb565b9050919050565b60008190508160005260206000209050919050565b60006020601f8301049050919050565b600082821b905092915050565b600060088302610ca07fffffffffffffffffffffffffffffffffffffffffffffffffffffffffffffffff82610c63565b610caa8683610c63565b95508019841693508086168417925050509392505050565b6000819050919050565b6000610ce7610ce2610cdd84610651565b610cc2565b610651565b9050919050565b6000819050919050565b610d0183610ccc565b610d15610d0d82610cee565b848454610c70565b825550505050565b600090565b610d2a610d1d565b610d35818484610cf8565b505050565b5b81811015610d5957610d4e600082610d22565b600181019050610d3b565b5050565b601f821115610d9e57610d6f81610c3e565b610d7884610c53565b81016020851015610d87578190505b610d9b610d9385610c53565b830182610d3a565b50505b505050565b600082821c905092915050565b6000610dc160001984600802610da3565b1980831691505092915050565b6000610dda8383610db0565b9150826002028217905092915050565b610df3826106c3565b67ffffffffffffffff811115610e0c57610e0b61079b565b5b610e168254610ba1565b610e21828285610d5d565b600060209050601f831160018114610e545760008415610e42578287015190505b610e4c8582610dce565b865550610eb4565b601f198416610e6286610c3e565b60005b82811015610e8a57848901518255600182019150602085019450602081019050610e65565b86831015610ea75784890151610ea3601f891682610db0565b8355505b6001600288020188555050505b50505050505056fea2646970667358221220592638f62a51102512fa07c7f94ff7fc0c538b27440adb545255dfac7a30e01f64736f6c63430008180033",
  "linkReferences": {},
  "deployedLinkReferences": {}
}